{
  "contractName": "ProductAuth",
  "abi": [
    {
      "inputs": [],
      "stateMutability": "nonpayable",
      "type": "constructor"
    },
    {
      "anonymous": false,
      "inputs": [
        {
          "indexed": false,
          "internalType": "uint256",
          "name": "productId",
          "type": "uint256"
        },
        {
          "indexed": false,
          "internalType": "address",
          "name": "buyer",
          "type": "address"
        },
        {
          "indexed": false,
          "internalType": "address",
          "name": "seller",
          "type": "address"
        },
        {
          "indexed": false,
          "internalType": "uint256",
          "name": "price",
          "type": "uint256"
        },
        {
          "indexed": false,
          "internalType": "string",
          "name": "imageHash",
          "type": "string"
        }
      ],
      "name": "ProductPurchased",
      "type": "event"
    },
    {
      "anonymous": false,
      "inputs": [
        {
          "indexed": false,
          "internalType": "uint256",
          "name": "productId",
          "type": "uint256"
        },
        {
          "indexed": false,
          "internalType": "bool",
          "name": "isReal",
          "type": "bool"
        }
      ],
      "name": "ProductVerified",
      "type": "event"
    },
    {
      "stateMutability": "payable",
      "type": "fallback"
    },
    {
      "inputs": [],
      "name": "owner",
      "outputs": [
        {
          "internalType": "address",
          "name": "",
          "type": "address"
        }
      ],
      "stateMutability": "view",
      "type": "function"
    },
    {
      "inputs": [
        {
          "internalType": "uint256",
          "name": "",
          "type": "uint256"
        }
      ],
      "name": "products",
      "outputs": [
        {
          "internalType": "uint256",
          "name": "productId",
          "type": "uint256"
        },
        {
          "internalType": "address payable",
          "name": "seller",
          "type": "address"
        },
        {
          "internalType": "address",
          "name": "buyer",
          "type": "address"
        },
        {
          "internalType": "bool",
          "name": "isVerified",
          "type": "bool"
        },
        {
          "internalType": "uint256",
          "name": "price",
          "type": "uint256"
        },
        {
          "internalType": "string",
          "name": "imageHash",
          "type": "string"
        }
      ],
      "stateMutability": "view",
      "type": "function"
    },
    {
      "stateMutability": "payable",
      "type": "receive"
    },
    {
      "inputs": [
        {
          "internalType": "uint256",
          "name": "_price",
          "type": "uint256"
        },
        {
          "internalType": "string",
          "name": "_imageHash",
          "type": "string"
        }
      ],
      "name": "setProduct",
      "outputs": [
        {
          "internalType": "uint256",
          "name": "",
          "type": "uint256"
        }
      ],
      "stateMutability": "nonpayable",
      "type": "function"
    },
    {
      "inputs": [
        {
          "internalType": "uint256",
          "name": "_productId",
          "type": "uint256"
        }
      ],
      "name": "buyProduct",
      "outputs": [],
      "stateMutability": "payable",
      "type": "function"
    },
    {
      "inputs": [
        {
          "internalType": "uint256",
          "name": "_productId",
          "type": "uint256"
        },
        {
          "internalType": "string",
          "name": "_imageHash",
          "type": "string"
        }
      ],
      "name": "verifyProduct",
      "outputs": [],
      "stateMutability": "nonpayable",
      "type": "function"
    },
    {
      "inputs": [
        {
          "internalType": "uint256",
          "name": "_productId",
          "type": "uint256"
        }
      ],
      "name": "realProduct",
      "outputs": [],
      "stateMutability": "nonpayable",
      "type": "function"
    },
    {
      "inputs": [
        {
          "internalType": "uint256",
          "name": "_productId",
          "type": "uint256"
        }
      ],
      "name": "fakeProduct",
      "outputs": [],
      "stateMutability": "nonpayable",
      "type": "function"
    },
    {
      "inputs": [
        {
          "internalType": "uint256",
          "name": "_productId",
          "type": "uint256"
        }
      ],
      "name": "getProduct",
      "outputs": [
        {
          "internalType": "uint256",
          "name": "",
          "type": "uint256"
        },
        {
          "internalType": "address",
          "name": "",
          "type": "address"
        },
        {
          "internalType": "address",
          "name": "",
          "type": "address"
        },
        {
          "internalType": "bool",
          "name": "",
          "type": "bool"
        },
        {
          "internalType": "uint256",
          "name": "",
          "type": "uint256"
        },
        {
          "internalType": "string",
          "name": "",
          "type": "string"
        }
      ],
      "stateMutability": "view",
      "type": "function"
    }
  ],
  "bytecode": "0x608060405234801561001057600080fd5b50336000806101000a81548173ffffffffffffffffffffffffffffffffffffffff021916908373ffffffffffffffffffffffffffffffffffffffff16021790555060006001819055506120dc806100686000396000f3fe60806040526004361061007f5760003560e01c80638642269e1161004e5780638642269e146101595780638af0657d146101755780638da5cb5b1461019e578063b9db15b4146101c957610086565b80630a67da4f1461008857806315fb5fbb146100c55780633267721c146100ee5780637acc0b201461011757610086565b3661008657005b005b34801561009457600080fd5b506100af60048036038101906100aa91906114fc565b61020b565b6040516100bc9190611567565b60405180910390f35b3480156100d157600080fd5b506100ec60048036038101906100e79190611582565b6103ca565b005b3480156100fa57600080fd5b50610115600480360381019061011091906114fc565b6107af565b005b34801561012357600080fd5b5061013e60048036038101906101399190611582565b610962565b604051610150969594939291906116b4565b60405180910390f35b610173600480360381019061016e9190611582565b610a73565b005b34801561018157600080fd5b5061019c60048036038101906101979190611582565b610d8a565b005b3480156101aa57600080fd5b506101b3611087565b6040516101c0919061171c565b60405180910390f35b3480156101d557600080fd5b506101f060048036038101906101eb9190611582565b6110ab565b60405161020296959493929190611737565b60405180910390f35b600080831161024f576040517f08c379a0000000000000000000000000000000000000000000000000000000008152600401610246906117eb565b60405180910390fd5b600160008154809291906102629061183a565b9190505550600060015490506040518060c001604052808281526020013373ffffffffffffffffffffffffffffffffffffffff168152602001600073ffffffffffffffffffffffffffffffffffffffff16815260200160001515815260200185815260200184815250600260008381526020019081526020016000206000820151816000015560208201518160010160006101000a81548173ffffffffffffffffffffffffffffffffffffffff021916908373ffffffffffffffffffffffffffffffffffffffff16021790555060408201518160020160006101000a81548173ffffffffffffffffffffffffffffffffffffffff021916908373ffffffffffffffffffffffffffffffffffffffff16021790555060608201518160020160146101000a81548160ff0219169083151502179055506080820151816003015560a08201518160040190805190602001906103bc9291906112c9565b509050508091505092915050565b60015481111580156103dc5750600081115b61041b576040517f08c379a0000000000000000000000000000000000000000000000000000000008152600401610412906118ce565b60405180910390fd5b6000600260008381526020019081526020016000209050600073ffffffffffffffffffffffffffffffffffffffff168160010160009054906101000a900473ffffffffffffffffffffffffffffffffffffffff1673ffffffffffffffffffffffffffffffffffffffff16036104c5576040517f08c379a00000000000000000000000000000000000000000000000000000000081526004016104bc9061193a565b60405180910390fd5b600073ffffffffffffffffffffffffffffffffffffffff168160020160009054906101000a900473ffffffffffffffffffffffffffffffffffffffff1673ffffffffffffffffffffffffffffffffffffffff1603610558576040517f08c379a000000000000000000000000000000000000000000000000000000000815260040161054f906119a6565b60405180910390fd5b8060020160149054906101000a900460ff16156105aa576040517f08c379a00000000000000000000000000000000000000000000000000000000081526004016105a190611a12565b60405180910390fd5b80600301544710156105f1576040517f08c379a00000000000000000000000000000000000000000000000000000000081526004016105e890611a7e565b60405180910390fd5b60018160020160146101000a81548160ff02191690831515021790555060008160010160009054906101000a900473ffffffffffffffffffffffffffffffffffffffff1673ffffffffffffffffffffffffffffffffffffffff16826003015460405161065c90611acf565b60006040518083038185875af1925050503d8060008114610699576040519150601f19603f3d011682016040523d82523d6000602084013e61069e565b606091505b50509050806106e2576040517f08c379a00000000000000000000000000000000000000000000000000000000081526004016106d990611b30565b60405180910390fd5b7fe0d605e351806c0da2670999e1bf8d5f67756681343b80cdb952f3b56c3e79c3836001604051610714929190611b50565b60405180910390a17f896388024e2c63c5d47d0c6e2b2f4229fece8e7bec8fcc48c287275531c1c1f9838360020160009054906101000a900473ffffffffffffffffffffffffffffffffffffffff168460010160009054906101000a900473ffffffffffffffffffffffffffffffffffffffff168560030154866004016040516107a2959493929190611ccd565b60405180910390a1505050565b60008054906101000a900473ffffffffffffffffffffffffffffffffffffffff1673ffffffffffffffffffffffffffffffffffffffff163373ffffffffffffffffffffffffffffffffffffffff161461083d576040517f08c379a000000000000000000000000000000000000000000000000000000000815260040161083490611d99565b60405180910390fd5b600154821115801561084f5750600082115b61088e576040517f08c379a0000000000000000000000000000000000000000000000000000000008152600401610885906118ce565b60405180910390fd5b60006002600084815260200190815260200160002090508180519060200120816004016040516108be9190611e4d565b604051809103902014610906576040517f08c379a00000000000000000000000000000000000000000000000000000000081526004016108fd90611eb0565b60405180910390fd5b60018160020160146101000a81548160ff0219169083151502179055507fe0d605e351806c0da2670999e1bf8d5f67756681343b80cdb952f3b56c3e79c3836001604051610955929190611b50565b60405180910390a1505050565b60026020528060005260406000206000915090508060000154908060010160009054906101000a900473ffffffffffffffffffffffffffffffffffffffff16908060020160009054906101000a900473ffffffffffffffffffffffffffffffffffffffff16908060020160149054906101000a900460ff16908060030154908060040180546109f090611c07565b80601f0160208091040260200160405190810160405280929190818152602001828054610a1c90611c07565b8015610a695780601f10610a3e57610100808354040283529160200191610a69565b820191906000526020600020905b815481529060010190602001808311610a4c57829003601f168201915b5050505050905086565b6001548111158015610a855750600081115b610ac4576040517f08c379a0000000000000000000000000000000000000000000000000000000008152600401610abb906118ce565b60405180910390fd5b6000600260008381526020019081526020016000209050600073ffffffffffffffffffffffffffffffffffffffff168160010160009054906101000a900473ffffffffffffffffffffffffffffffffffffffff1673ffffffffffffffffffffffffffffffffffffffff1603610b6e576040517f08c379a0000000000000000000000000000000000000000000000000000000008152600401610b659061193a565b60405180910390fd5b80600301543414610bb4576040517f08c379a0000000000000000000000000000000000000000000000000000000008152600401610bab90611f1c565b60405180910390fd5b600073ffffffffffffffffffffffffffffffffffffffff168160020160009054906101000a900473ffffffffffffffffffffffffffffffffffffffff1673ffffffffffffffffffffffffffffffffffffffff1614610c47576040517f08c379a0000000000000000000000000000000000000000000000000000000008152600401610c3e90611f88565b60405180910390fd5b8060010160009054906101000a900473ffffffffffffffffffffffffffffffffffffffff1673ffffffffffffffffffffffffffffffffffffffff163373ffffffffffffffffffffffffffffffffffffffff1603610cd9576040517f08c379a0000000000000000000000000000000000000000000000000000000008152600401610cd09061201a565b60405180910390fd5b338160020160006101000a81548173ffffffffffffffffffffffffffffffffffffffff021916908373ffffffffffffffffffffffffffffffffffffffff1602179055507f896388024e2c63c5d47d0c6e2b2f4229fece8e7bec8fcc48c287275531c1c1f982338360010160009054906101000a900473ffffffffffffffffffffffffffffffffffffffff16846003015485600401604051610d7e959493929190611ccd565b60405180910390a15050565b6001548111158015610d9c5750600081115b610ddb576040517f08c379a0000000000000000000000000000000000000000000000000000000008152600401610dd2906118ce565b60405180910390fd5b6000600260008381526020019081526020016000209050600073ffffffffffffffffffffffffffffffffffffffff168160010160009054906101000a900473ffffffffffffffffffffffffffffffffffffffff1673ffffffffffffffffffffffffffffffffffffffff1603610e85576040517f08c379a0000000000000000000000000000000000000000000000000000000008152600401610e7c9061193a565b60405180910390fd5b8060020160149054906101000a900460ff1615610ed7576040517f08c379a0000000000000000000000000000000000000000000000000000000008152600401610ece90611a12565b60405180910390fd5b600073ffffffffffffffffffffffffffffffffffffffff168160020160009054906101000a900473ffffffffffffffffffffffffffffffffffffffff1673ffffffffffffffffffffffffffffffffffffffff16146110495760008160020160009054906101000a900473ffffffffffffffffffffffffffffffffffffffff1673ffffffffffffffffffffffffffffffffffffffff168260030154604051610f7d90611acf565b60006040518083038185875af1925050503d8060008114610fba576040519150601f19603f3d011682016040523d82523d6000602084013e610fbf565b606091505b5050905080611003576040517f08c379a0000000000000000000000000000000000000000000000000000000008152600401610ffa90612086565b60405180910390fd5b60008260020160006101000a81548173ffffffffffffffffffffffffffffffffffffffff021916908373ffffffffffffffffffffffffffffffffffffffff160217905550505b7fe0d605e351806c0da2670999e1bf8d5f67756681343b80cdb952f3b56c3e79c382600060405161107b929190611b50565b60405180910390a15050565b60008054906101000a900473ffffffffffffffffffffffffffffffffffffffff1681565b6000806000806000606060015487111580156110c75750600087115b611106576040517f08c379a00000000000000000000000000000000000000000000000000000000081526004016110fd906118ce565b60405180910390fd5b6000600260008981526020019081526020016000206040518060c0016040529081600082015481526020016001820160009054906101000a900473ffffffffffffffffffffffffffffffffffffffff1673ffffffffffffffffffffffffffffffffffffffff1673ffffffffffffffffffffffffffffffffffffffff1681526020016002820160009054906101000a900473ffffffffffffffffffffffffffffffffffffffff1673ffffffffffffffffffffffffffffffffffffffff1673ffffffffffffffffffffffffffffffffffffffff1681526020016002820160149054906101000a900460ff161515151581526020016003820154815260200160048201805461121190611c07565b80601f016020809104026020016040519081016040528092919081815260200182805461123d90611c07565b801561128a5780601f1061125f5761010080835404028352916020019161128a565b820191906000526020600020905b81548152906001019060200180831161126d57829003601f168201915b5050505050815250509050806000015181602001518260400151836060015184608001518560a001519650965096509650965096505091939550919395565b8280546112d590611c07565b90600052602060002090601f0160209004810192826112f7576000855561133e565b82601f1061131057805160ff191683800117855561133e565b8280016001018555821561133e579182015b8281111561133d578251825591602001919060010190611322565b5b50905061134b919061134f565b5090565b5b80821115611368576000816000905550600101611350565b5090565b6000604051905090565b600080fd5b600080fd5b6000819050919050565b61139381611380565b811461139e57600080fd5b50565b6000813590506113b08161138a565b92915050565b600080fd5b600080fd5b6000601f19601f8301169050919050565b7f4e487b7100000000000000000000000000000000000000000000000000000000600052604160045260246000fd5b611409826113c0565b810181811067ffffffffffffffff82111715611428576114276113d1565b5b80604052505050565b600061143b61136c565b90506114478282611400565b919050565b600067ffffffffffffffff821115611467576114666113d1565b5b611470826113c0565b9050602081019050919050565b82818337600083830152505050565b600061149f61149a8461144c565b611431565b9050828152602081018484840111156114bb576114ba6113bb565b5b6114c684828561147d565b509392505050565b600082601f8301126114e3576114e26113b6565b5b81356114f384826020860161148c565b91505092915050565b6000806040838503121561151357611512611376565b5b6000611521858286016113a1565b925050602083013567ffffffffffffffff8111156115425761154161137b565b5b61154e858286016114ce565b9150509250929050565b61156181611380565b82525050565b600060208201905061157c6000830184611558565b92915050565b60006020828403121561159857611597611376565b5b60006115a6848285016113a1565b91505092915050565b600073ffffffffffffffffffffffffffffffffffffffff82169050919050565b60006115da826115af565b9050919050565b6115ea816115cf565b82525050565b60006115fb826115af565b9050919050565b61160b816115f0565b82525050565b60008115159050919050565b61162681611611565b82525050565b600081519050919050565b600082825260208201905092915050565b60005b8381101561166657808201518184015260208101905061164b565b83811115611675576000848401525b50505050565b60006116868261162c565b6116908185611637565b93506116a0818560208601611648565b6116a9816113c0565b840191505092915050565b600060c0820190506116c96000830189611558565b6116d660208301886115e1565b6116e36040830187611602565b6116f0606083018661161d565b6116fd6080830185611558565b81810360a083015261170f818461167b565b9050979650505050505050565b60006020820190506117316000830184611602565b92915050565b600060c08201905061174c6000830189611558565b6117596020830188611602565b6117666040830187611602565b611773606083018661161d565b6117806080830185611558565b81810360a0830152611792818461167b565b9050979650505050505050565b7f5072696365206d7573742062652067726561746572207468616e203000000000600082015250565b60006117d5601c83611637565b91506117e08261179f565b602082019050919050565b60006020820190508181036000830152611804816117c8565b9050919050565b7f4e487b7100000000000000000000000000000000000000000000000000000000600052601160045260246000fd5b600061184582611380565b91507fffffffffffffffffffffffffffffffffffffffffffffffffffffffffffffffff82036118775761187661180b565b5b600182019050919050565b7f496e76616c69642070726f647563742049440000000000000000000000000000600082015250565b60006118b8601283611637565b91506118c382611882565b602082019050919050565b600060208201905081810360008301526118e7816118ab565b9050919050565b7f50726f6475637420646f6573206e6f7420657869737400000000000000000000600082015250565b6000611924601683611637565b915061192f826118ee565b602082019050919050565b6000602082019050818103600083015261195381611917565b9050919050565b7f4e6f20627579657220666f7220746869732070726f6475637400000000000000600082015250565b6000611990601983611637565b915061199b8261195a565b602082019050919050565b600060208201905081810360008301526119bf81611983565b9050919050565b7f50726f6475637420616c72656164792076657269666965640000000000000000600082015250565b60006119fc601883611637565b9150611a07826119c6565b602082019050919050565b60006020820190508181036000830152611a2b816119ef565b9050919050565b7f496e73756666696369656e7420636f6e74726163742062616c616e6365000000600082015250565b6000611a68601d83611637565b9150611a7382611a32565b602082019050919050565b60006020820190508181036000830152611a9781611a5b565b9050919050565b600081905092915050565b50565b6000611ab9600083611a9e565b9150611ac482611aa9565b600082019050919050565b6000611ada82611aac565b9150819050919050565b7f5472616e73666572206661696c65640000000000000000000000000000000000600082015250565b6000611b1a600f83611637565b9150611b2582611ae4565b602082019050919050565b60006020820190508181036000830152611b4981611b0d565b9050919050565b6000604082019050611b656000830185611558565b611b72602083018461161d565b9392505050565b6000819050919050565b6000611b9e611b99611b94846115af565b611b79565b6115af565b9050919050565b6000611bb082611b83565b9050919050565b6000611bc282611ba5565b9050919050565b611bd281611bb7565b82525050565b7f4e487b7100000000000000000000000000000000000000000000000000000000600052602260045260246000fd5b60006002820490506001821680611c1f57607f821691505b602082108103611c3257611c31611bd8565b5b50919050565b60008190508160005260206000209050919050565b60008154611c5a81611c07565b611c648186611637565b94506001821660008114611c7f5760018114611c9157611cc4565b60ff1983168652602086019350611cc4565b611c9a85611c38565b60005b83811015611cbc57815481890152600182019150602081019050611c9d565b808801955050505b50505092915050565b600060a082019050611ce26000830188611558565b611cef6020830187611602565b611cfc6040830186611bc9565b611d096060830185611558565b8181036080830152611d1b8184611c4d565b90509695505050505050565b7f4f6e6c79206f776e65722063616e2063616c6c20746869732066756e6374696f60008201527f6e00000000000000000000000000000000000000000000000000000000000000602082015250565b6000611d83602183611637565b9150611d8e82611d27565b604082019050919050565b60006020820190508181036000830152611db281611d76565b9050919050565b60008190508160005260206000209050919050565b60008154611ddb81611c07565b611de58186611a9e565b94506001821660008114611e005760018114611e1157611e44565b60ff19831686528186019350611e44565b611e1a85611db9565b60005b83811015611e3c57815481890152600182019150602081019050611e1d565b838801955050505b50505092915050565b6000611e598284611dce565b915081905092915050565b7f496d6167652068617368206d69736d6174636800000000000000000000000000600082015250565b6000611e9a601383611637565b9150611ea582611e64565b602082019050919050565b60006020820190508181036000830152611ec981611e8d565b9050919050565b7f496e636f727265637420457468657220616d6f756e7400000000000000000000600082015250565b6000611f06601683611637565b9150611f1182611ed0565b602082019050919050565b60006020820190508181036000830152611f3581611ef9565b9050919050565b7f50726f6475637420616c726561647920736f6c64000000000000000000000000600082015250565b6000611f72601483611637565b9150611f7d82611f3c565b602082019050919050565b60006020820190508181036000830152611fa181611f65565b9050919050565b7f53656c6c65722063616e6e6f7420627579207468656972206f776e2070726f6460008201527f7563740000000000000000000000000000000000000000000000000000000000602082015250565b6000612004602383611637565b915061200f82611fa8565b604082019050919050565b6000602082019050818103600083015261203381611ff7565b9050919050565b7f526566756e64206661696c656400000000000000000000000000000000000000600082015250565b6000612070600d83611637565b915061207b8261203a565b602082019050919050565b6000602082019050818103600083015261209f81612063565b905091905056fea264697066735822122030397b6e31ab38e198a2908b4c2bc028e796c3a6f87876834d605cd7fdb8d99064736f6c634300080d0033",
  "immutableReferences": {},
  "source": "// SPDX-License-Identifier: MIT\r\npragma solidity ^0.8.13;\r\n\r\ncontract ProductAuth {\r\n    address public owner;\r\n    uint256 private productCounter;\r\n\r\n    // Product structure\r\n    struct Product {\r\n        uint productId;\r\n        address payable seller;\r\n        address buyer;\r\n        bool isVerified;\r\n        uint price;\r\n        string imageHash;\r\n    }\r\n\r\n    // Mapping from product ID to product information\r\n    mapping(uint => Product) public products;\r\n\r\n    // Events\r\n    event ProductVerified(uint productId, bool isReal);\r\n    event ProductPurchased(\r\n        uint productId,\r\n        address buyer,\r\n        address seller,\r\n        uint price,\r\n        string imageHash // Add imageHash to the event\r\n    );\r\n\r\n    // Constructor\r\n    constructor() {\r\n        owner = msg.sender;\r\n        productCounter = 0;\r\n    }\r\n\r\n    // Modifiers\r\n    modifier onlyOwner() {\r\n        require(msg.sender == owner, \"Only owner can call this function\");\r\n        _;\r\n    }\r\n\r\n    // Functions to handle incoming ETH\r\n    receive() external payable {}\r\n    fallback() external payable {}\r\n\r\n    function setProduct(\r\n        uint _price,\r\n        string memory _imageHash\r\n    ) public returns (uint) {\r\n        require(_price > 0, \"Price must be greater than 0\");\r\n\r\n        productCounter++;\r\n        uint newProductId = productCounter;\r\n\r\n        products[newProductId] = Product({\r\n            productId: newProductId,\r\n            seller: payable(msg.sender),\r\n            buyer: address(0),\r\n            isVerified: false,\r\n            price: _price,\r\n            imageHash: _imageHash\r\n        });\r\n\r\n        return newProductId;\r\n    }\r\n\r\n    function buyProduct(uint _productId) public payable {\r\n        require(\r\n            _productId <= productCounter && _productId > 0,\r\n            \"Invalid product ID\"\r\n        );\r\n        Product storage product = products[_productId];\r\n        require(product.seller != address(0), \"Product does not exist\");\r\n        require(msg.value == product.price, \"Incorrect Ether amount\");\r\n        require(product.buyer == address(0), \"Product already sold\");\r\n        require(\r\n            msg.sender != product.seller,\r\n            \"Seller cannot buy their own product\"\r\n        );\r\n\r\n        product.buyer = msg.sender;\r\n\r\n        // Emit event with imageHash included\r\n        emit ProductPurchased(\r\n            _productId,\r\n            msg.sender,\r\n            product.seller,\r\n            product.price,\r\n            product.imageHash\r\n        );\r\n    }\r\n\r\n    function verifyProduct(\r\n        uint _productId,\r\n        string memory _imageHash\r\n    ) public onlyOwner {\r\n        require(\r\n            _productId <= productCounter && _productId > 0,\r\n            \"Invalid product ID\"\r\n        );\r\n        Product storage product = products[_productId];\r\n        require(\r\n            keccak256(bytes(product.imageHash)) == keccak256(bytes(_imageHash)),\r\n            \"Image hash mismatch\"\r\n        );\r\n\r\n        // Your AI verification logic would go here\r\n        product.isVerified = true;\r\n        emit ProductVerified(_productId, true);\r\n    }\r\n\r\n    function realProduct(uint _productId) public {\r\n        require(\r\n            _productId <= productCounter && _productId > 0,\r\n            \"Invalid product ID\"\r\n        );\r\n        Product storage product = products[_productId];\r\n        require(product.seller != address(0), \"Product does not exist\");\r\n        require(product.buyer != address(0), \"No buyer for this product\");\r\n        require(!product.isVerified, \"Product already verified\");\r\n        require(\r\n            address(this).balance >= product.price,\r\n            \"Insufficient contract balance\"\r\n        );\r\n\r\n        product.isVerified = true;\r\n\r\n        (bool success, ) = product.seller.call{value: product.price}(\"\");\r\n        require(success, \"Transfer failed\");\r\n\r\n        emit ProductVerified(_productId, true);\r\n        emit ProductPurchased(\r\n            _productId,\r\n            product.buyer,\r\n            product.seller,\r\n            product.price,\r\n            product.imageHash\r\n        );\r\n    }\r\n\r\n    function fakeProduct(uint _productId) public {\r\n        require(\r\n            _productId <= productCounter && _productId > 0,\r\n            \"Invalid product ID\"\r\n        );\r\n        Product storage product = products[_productId];\r\n        require(product.seller != address(0), \"Product does not exist\");\r\n        require(!product.isVerified, \"Product already verified\");\r\n\r\n        if (product.buyer != address(0)) {\r\n            (bool success, ) = payable(product.buyer).call{\r\n                value: product.price\r\n            }(\"\");\r\n            require(success, \"Refund failed\");\r\n            product.buyer = address(0);\r\n        }\r\n\r\n        emit ProductVerified(_productId, false);\r\n    }\r\n\r\n    function getProduct(\r\n        uint _productId\r\n    ) public view returns (uint, address, address, bool, uint, string memory) {\r\n        require(\r\n            _productId <= productCounter && _productId > 0,\r\n            \"Invalid product ID\"\r\n        );\r\n        Product memory product = products[_productId];\r\n        return (\r\n            product.productId,\r\n            product.seller,\r\n            product.buyer,\r\n            product.isVerified,\r\n            product.price,\r\n            product.imageHash\r\n        );\r\n    }\r\n}\r\n",
  "sourcePath": "C:\\Users\\phama\\Downloads\\Vaida_aimfall2024\\Smart Contract\\contracts\\ProductAuth.sol",
  "compiler": {
    "name": "solc",
    "version": "0.8.13+commit.abaa5c0e.Emscripten.clang"
  },
  "schemaVersion": "3.4.16",
  "updatedAt": "2024-11-21T03:31:43.322Z",
  "devdoc": {
    "kind": "dev",
    "methods": {},
    "version": 1
  },
  "userdoc": {
    "kind": "user",
    "methods": {},
    "version": 1
  }
}